:100000000C9434000C9451000C9451000C94510049
:100010000C9451000C9451000C9451000C9451001C
:100020000C9451000C9451000C9451000C9451000C
:100030000C9451000C9451000C9451000C945100FC
:100040000C9451000C9451000C9451000C945100EC
:100050000C9451000C9451000C9451000C945100DC
:100060000C9451000C94510011241FBECFEFD8E026
:10007000DEBFCDBF11E0A0E0B1E0EEEFF4E002C0E2
:1000800005900D92A030B107D9F721E0A0E0B1E0D2
:1000900001C01D92A030B207E1F70E9485010C94C7
:1000A0007D020C940000FC0140E050E023B130E000
:1000B000042E02C0359527950A94E2F720FF17C059
:1000C0009081292F30E0042E02C0359527950A949F
:1000D000E2F720FF0CC021E030E0042E02C0220F26
:1000E000331F0A94E2F7922B9083842F08954F5F79
:1000F0005F4F46305105D1F686E008958F929F926A
:10010000AF92BF92CF92DF92FF920F931F93CF9344
:10011000DF93CDB7DEB7AD970FB6F894DEBF0FBE55
:10012000CDBFF82E6B014A015901CE0101960E9404
:10013000190221E0F216A1F0F21620F082E0F81286
:1001400031C01BC0F4018081833019F482E08083C8
:1001500003C08F5FF401808381E0F801808322C0B7
:10016000F5018081833011F4108203C08F5FF501A7
:10017000808381E0F801808315C0F50180818823A8
:1001800071F0F4019081FFE09F9FC00CD11C1124FD
:10019000F601E80FF11D948581E08927848781E0CD
:1001A000F8018083AD960FB6F894DEBF0FBECDBFC9
:1001B000DF91CF911F910F91FF90DF90CF90BF9073
:1001C000AF909F908F9008950E9444010E944D012E
:1001D00082EE0E945E0186E70E945E0181E00E943D
:1001E0005E0182E00E945E0183E00E945E0184E085
:1001F0000E945E010E9456010895F999FECF92BDBA
:1002000081BD60BDFA9AF99A0895F999FECF92BD21
:1002100081BDF89A80B50895EF92FF920F931F93D6
:10022000CF93DF938C017B01EA01209751F0F70116
:1002300061917F01C8010E94FD000F5F1F4F219750
:10024000B1F7DF91CF911F910F91FF90EF9008953B
:10025000EF92FF920F931F93CF93DF938C017B015B
:10026000EA01209751F0C8010E940501F70181932E
:100270007F010F5F1F4F2197B1F7DF91CF911F9142
:100280000F91FF90EF9008951092B90086E480934B
:10029000B80084E08093BC00089584EA8093BC0099
:1002A000ECEBF0E080818823ECF7089584E98093FB
:1002B000BC0081E28A95F1F7000008958093BB00AD
:1002C00084E88093BC00ECEBF0E080818823ECF7BD
:1002D000089520E4829FC001112484688093BC00AB
:1002E000ECEBF0E080818823ECF78091BB0008956F
:1002F0008AB1807C8AB98BB18F638BB984B18760F6
:1003000084B985B1887F85B90895CF93DF93CDB740
:10031000DEB7E4970FB6F894DEBF0FBECDBF0E94E4
:1003200078010E9421020E94E4000E94D201CE01C5
:1003300001960E9419021EA61FA618AA40E060E0BE
:1003400080E00E94310219AA81E08AAB1BAA1CAA94
:10035000CE01C1960E9453008E010C5C1F4F9E017E
:100360002D5C3F4FAE014E5C5F4FBE016F5F7F4F14
:100370000E947E00AE01405D5F4FBE01615D7F4F18
:10038000CE018E960E944E028CA9813009F41CAADF
:100390002FE986E891E0215080409040E1F700C0CD
:1003A0000000D6CFCF93DF93CDB7DEB7EC970FB673
:1003B000F894DEBF0FBECDBFFE013196CE010A9686
:1003C000DC0110821182128213961C9213971D92E7
:1003D0003396E817F907A9F78FE0FE013196DE01A1
:1003E000509601900D928A95E1F78FE0FE013196CB
:1003F000DE015F9601900D928A95E1F78FE0FE0194
:100400003196DE019E9601900D928A95E1F74DE2BC
:1004100050E0BE01605F7F4F80E090E00E940C01E1
:10042000EC960FB6F894DEBF0FBECDBFDF91CF9133
:10043000089542E050E0BC0180E090E00E94280175
:1004400008950E9444010E944D0180ED0E945E01CA
:1004500087E00E945E0180E00E945E010E945601DA
:1004600008951F93CF93DF93C82FD62F142F0E9488
:100470004D0180ED0E945E0180E00E945E01812FAF
:100480000E945E018D2F0E945E018C2F0E945E01F2
:100490000E945601DF91CF911F910895EF92FF9234
:1004A0000F931F93CF93DF93EC018B017A010E948E
:1004B0004D0180ED0E945E0180E00E945E010E947D
:1004C00056010E944D0181ED0E945E0181E00E9473
:1004D0006901F701808381E00E946901F80180834E
:1004E00080E00E94690188830E945601DF91CF91CC
:0E04F0001F910F91FF90EF900895F894FFCFA9
:00000001FF
