:100000000C9434000C9451000C9451000C94510049
:100010000C9451000C9451000C9451000C9451001C
:100020000C9451000C9451000C9451000C9451000C
:100030000C9451000C9451000C9451000C945100FC
:100040000C9451000C9451000C9451000C945100EC
:100050000C9451000C9451000C9451000C945100DC
:100060000C9451000C94510011241FBECFEFD8E026
:10007000DEBFCDBF11E0A0E0B1E0E6E7F4E002C0F2
:1000800005900D92A030B107D9F721E0A0E0B1E0D2
:1000900001C01D92A030B207E1F70E9420010C942C
:1000A00039020C940000FC0140E050E023B130E044
:1000B000042E02C0359527950A94E2F720FF17C059
:1000C0009081292F30E0042E02C0359527950A949F
:1000D000E2F720FF0CC021E030E0042E02C0220F26
:1000E000331F0A94E2F7922B9083842F08954F5F79
:1000F0005F4F46305105D1F686E0089508950E947D
:10010000DF000E94E80082EE0E94F90085E00E9474
:10011000F90081E00E94F90082E00E94F90083E08A
:100120000E94F90084E00E94F9000E94F100089505
:10013000F999FECF92BD81BD60BDFA9AF99A0895F2
:10014000F999FECF92BD81BDF89A80B50895EF92DE
:10015000FF920F931F93CF93DF938C017B01EA01F2
:10016000209751F0F70161917F01C8010E9498002A
:100170000F5F1F4F2197B1F7DF91CF911F910F9123
:10018000FF90EF900895EF92FF920F931F93CF93FC
:10019000DF938C017B01EA01209751F0C8010E9496
:1001A000A000F70181937F010F5F1F4F2197B1F7E7
:1001B000DF91CF911F910F91FF90EF9008951092D2
:1001C000B90086E48093B80084E08093BC00089571
:1001D00084EA8093BC00ECEBF0E080818823ECF7AC
:1001E000089584E98093BC0081E28A95F1F70000CC
:1001F00008958093BB0084E88093BC00ECEBF0E0B2
:1002000080818823ECF7089520E4829FC0011124A7
:1002100084688093BC00ECEBF0E080818823ECF7ED
:100220008091BB0008958AB1807C8AB98BB18F63BD
:100230008BB984B1876084B985B1887F85B9089509
:10024000CF93DF93CDB7DEB7CE55D1090FB6F89473
:10025000DEBF0FBECDBF0E9413010E94DD010E94D0
:100260007F008FE0FE01BE96DE01119601900D9297
:100270008A95E1F78FE0FE01FD96DE015096019030
:100280000D928A95E1F78FE0FE01E45BFF4FDE01FE
:100290005F9601900D928A95E1F70E948C01CE0144
:1002A00001960E94D5016C961FAE6C976D961FAE9D
:1002B0006D976E961FAE6E9740E060E080E00E9402
:1002C000ED016F961FAE6F970F2EFBE5EF2EF12C11
:1002D000F02DEC0EFD1E22E0E20EF11C0BE510E00D
:1002E0000C0F1D1F0F5F1F4FCE01825A9F4F0E94A0
:1002F00053000E947E00A701B801CE01855A9F4F8E
:100300000E940A028FE996E821E081509040204047
:10031000E1F700C00000E8CFCF93DF93CDB7DEB7A1
:10032000AD970FB6F894DEBF0FBECDBF19821A820B
:100330001B821C821D821E821F82188619861A86C5
:100340001B861C861D861E861F86188A198A1A8A95
:100350001B8A1C8A1D8A1E8A1F8A188E198E1A8E65
:100360001B8E1C8E1D8E1E8E1F8E18A219A21AA205
:100370001BA21CA21DA21EA21FA218A619A61AA685
:100380001BA61CA61DA64DE250E0BE016F5F7F4F6D
:1003900080E090E00E94A700AD960FB6F894DEBF13
:1003A0000FBECDBFDF91CF9108954DE250E0BC016B
:1003B00080E090E00E94C30008950E94DF000E9448
:1003C000E80080ED0E94F90087E00E94F90080E0DB
:1003D0000E94F9000E94F10008951F93CF93DF93CC
:1003E000C82FD62F142F0E94E80080ED0E94F9003C
:1003F00080E00E94F900812F0E94F9008D2F0E9459
:10040000F9008C2F0E94F9000E94F100DF91CF913A
:100410001F910895EF92FF920F931F93CF93DF9355
:10042000EC018B017A010E94E80080ED0E94F90046
:1004300080E00E94F9000E94F1000E94E80081ED36
:100440000E94F90081E00E940401F701808381E0AD
:100450000E940401F801808380E00E9404018883E7
:100460000E94F100DF91CF911F910F91FF90EF90CB
:060470000895F894FFCF8F
:00000001FF
